{
  "contractName": "DominionDAO",
  "abi": [
    {
      "anonymous": false,
      "inputs": [
        {
          "indexed": true,
          "internalType": "address",
          "name": "initiator",
          "type": "address"
        },
        {
          "indexed": false,
          "internalType": "bytes32",
          "name": "role",
          "type": "bytes32"
        },
        {
          "indexed": false,
          "internalType": "string",
          "name": "message",
          "type": "string"
        },
        {
          "indexed": true,
          "internalType": "address",
          "name": "beneficiary",
          "type": "address"
        },
        {
          "indexed": false,
          "internalType": "uint256",
          "name": "amount",
          "type": "uint256"
        }
      ],
      "name": "Action",
      "type": "event"
    },
    {
      "anonymous": false,
      "inputs": [
        {
          "indexed": true,
          "internalType": "bytes32",
          "name": "role",
          "type": "bytes32"
        },
        {
          "indexed": true,
          "internalType": "bytes32",
          "name": "previousAdminRole",
          "type": "bytes32"
        },
        {
          "indexed": true,
          "internalType": "bytes32",
          "name": "newAdminRole",
          "type": "bytes32"
        }
      ],
      "name": "RoleAdminChanged",
      "type": "event"
    },
    {
      "anonymous": false,
      "inputs": [
        {
          "indexed": true,
          "internalType": "bytes32",
          "name": "role",
          "type": "bytes32"
        },
        {
          "indexed": true,
          "internalType": "address",
          "name": "account",
          "type": "address"
        },
        {
          "indexed": true,
          "internalType": "address",
          "name": "sender",
          "type": "address"
        }
      ],
      "name": "RoleGranted",
      "type": "event"
    },
    {
      "anonymous": false,
      "inputs": [
        {
          "indexed": true,
          "internalType": "bytes32",
          "name": "role",
          "type": "bytes32"
        },
        {
          "indexed": true,
          "internalType": "address",
          "name": "account",
          "type": "address"
        },
        {
          "indexed": true,
          "internalType": "address",
          "name": "sender",
          "type": "address"
        }
      ],
      "name": "RoleRevoked",
      "type": "event"
    },
    {
      "inputs": [],
      "name": "DEFAULT_ADMIN_ROLE",
      "outputs": [
        {
          "internalType": "bytes32",
          "name": "",
          "type": "bytes32"
        }
      ],
      "stateMutability": "view",
      "type": "function",
      "constant": true
    },
    {
      "inputs": [],
      "name": "daoBalance",
      "outputs": [
        {
          "internalType": "uint256",
          "name": "",
          "type": "uint256"
        }
      ],
      "stateMutability": "view",
      "type": "function",
      "constant": true
    },
    {
      "inputs": [
        {
          "internalType": "bytes32",
          "name": "role",
          "type": "bytes32"
        }
      ],
      "name": "getRoleAdmin",
      "outputs": [
        {
          "internalType": "bytes32",
          "name": "",
          "type": "bytes32"
        }
      ],
      "stateMutability": "view",
      "type": "function",
      "constant": true
    },
    {
      "inputs": [
        {
          "internalType": "bytes32",
          "name": "role",
          "type": "bytes32"
        },
        {
          "internalType": "address",
          "name": "account",
          "type": "address"
        }
      ],
      "name": "grantRole",
      "outputs": [],
      "stateMutability": "nonpayable",
      "type": "function"
    },
    {
      "inputs": [
        {
          "internalType": "bytes32",
          "name": "role",
          "type": "bytes32"
        },
        {
          "internalType": "address",
          "name": "account",
          "type": "address"
        }
      ],
      "name": "hasRole",
      "outputs": [
        {
          "internalType": "bool",
          "name": "",
          "type": "bool"
        }
      ],
      "stateMutability": "view",
      "type": "function",
      "constant": true
    },
    {
      "inputs": [
        {
          "internalType": "bytes32",
          "name": "role",
          "type": "bytes32"
        },
        {
          "internalType": "address",
          "name": "account",
          "type": "address"
        }
      ],
      "name": "renounceRole",
      "outputs": [],
      "stateMutability": "nonpayable",
      "type": "function"
    },
    {
      "inputs": [
        {
          "internalType": "bytes32",
          "name": "role",
          "type": "bytes32"
        },
        {
          "internalType": "address",
          "name": "account",
          "type": "address"
        }
      ],
      "name": "revokeRole",
      "outputs": [],
      "stateMutability": "nonpayable",
      "type": "function"
    },
    {
      "inputs": [
        {
          "internalType": "bytes4",
          "name": "interfaceId",
          "type": "bytes4"
        }
      ],
      "name": "supportsInterface",
      "outputs": [
        {
          "internalType": "bool",
          "name": "",
          "type": "bool"
        }
      ],
      "stateMutability": "view",
      "type": "function",
      "constant": true
    },
    {
      "inputs": [
        {
          "internalType": "string",
          "name": "title",
          "type": "string"
        },
        {
          "internalType": "string",
          "name": "description",
          "type": "string"
        },
        {
          "internalType": "address",
          "name": "beneficiary",
          "type": "address"
        },
        {
          "internalType": "uint256",
          "name": "amount",
          "type": "uint256"
        }
      ],
      "name": "createProposal",
      "outputs": [
        {
          "components": [
            {
              "internalType": "uint256",
              "name": "id",
              "type": "uint256"
            },
            {
              "internalType": "uint256",
              "name": "amount",
              "type": "uint256"
            },
            {
              "internalType": "uint256",
              "name": "duration",
              "type": "uint256"
            },
            {
              "internalType": "uint256",
              "name": "upvotes",
              "type": "uint256"
            },
            {
              "internalType": "uint256",
              "name": "downvotes",
              "type": "uint256"
            },
            {
              "internalType": "string",
              "name": "title",
              "type": "string"
            },
            {
              "internalType": "string",
              "name": "description",
              "type": "string"
            },
            {
              "internalType": "bool",
              "name": "passed",
              "type": "bool"
            },
            {
              "internalType": "bool",
              "name": "paid",
              "type": "bool"
            },
            {
              "internalType": "address payable",
              "name": "beneficiary",
              "type": "address"
            },
            {
              "internalType": "address",
              "name": "proposer",
              "type": "address"
            },
            {
              "internalType": "address",
              "name": "executor",
              "type": "address"
            }
          ],
          "internalType": "struct DominionDAO.ProposalStruct",
          "name": "",
          "type": "tuple"
        }
      ],
      "stateMutability": "nonpayable",
      "type": "function"
    },
    {
      "inputs": [
        {
          "internalType": "uint256",
          "name": "proposalId",
          "type": "uint256"
        },
        {
          "internalType": "bool",
          "name": "choosen",
          "type": "bool"
        }
      ],
      "name": "performVote",
      "outputs": [],
      "stateMutability": "nonpayable",
      "type": "function"
    },
    {
      "inputs": [
        {
          "internalType": "uint256",
          "name": "proposalId",
          "type": "uint256"
        }
      ],
      "name": "payBeneficiary",
      "outputs": [],
      "stateMutability": "nonpayable",
      "type": "function"
    },
    {
      "inputs": [],
      "name": "contribute",
      "outputs": [
        {
          "internalType": "uint256",
          "name": "",
          "type": "uint256"
        }
      ],
      "stateMutability": "payable",
      "type": "function",
      "payable": true
    },
    {
      "inputs": [],
      "name": "getProposals",
      "outputs": [
        {
          "components": [
            {
              "internalType": "uint256",
              "name": "id",
              "type": "uint256"
            },
            {
              "internalType": "uint256",
              "name": "amount",
              "type": "uint256"
            },
            {
              "internalType": "uint256",
              "name": "duration",
              "type": "uint256"
            },
            {
              "internalType": "uint256",
              "name": "upvotes",
              "type": "uint256"
            },
            {
              "internalType": "uint256",
              "name": "downvotes",
              "type": "uint256"
            },
            {
              "internalType": "string",
              "name": "title",
              "type": "string"
            },
            {
              "internalType": "string",
              "name": "description",
              "type": "string"
            },
            {
              "internalType": "bool",
              "name": "passed",
              "type": "bool"
            },
            {
              "internalType": "bool",
              "name": "paid",
              "type": "bool"
            },
            {
              "internalType": "address payable",
              "name": "beneficiary",
              "type": "address"
            },
            {
              "internalType": "address",
              "name": "proposer",
              "type": "address"
            },
            {
              "internalType": "address",
              "name": "executor",
              "type": "address"
            }
          ],
          "internalType": "struct DominionDAO.ProposalStruct[]",
          "name": "props",
          "type": "tuple[]"
        }
      ],
      "stateMutability": "view",
      "type": "function",
      "constant": true
    },
    {
      "inputs": [
        {
          "internalType": "uint256",
          "name": "proposalId",
          "type": "uint256"
        }
      ],
      "name": "getProposal",
      "outputs": [
        {
          "components": [
            {
              "internalType": "uint256",
              "name": "id",
              "type": "uint256"
            },
            {
              "internalType": "uint256",
              "name": "amount",
              "type": "uint256"
            },
            {
              "internalType": "uint256",
              "name": "duration",
              "type": "uint256"
            },
            {
              "internalType": "uint256",
              "name": "upvotes",
              "type": "uint256"
            },
            {
              "internalType": "uint256",
              "name": "downvotes",
              "type": "uint256"
            },
            {
              "internalType": "string",
              "name": "title",
              "type": "string"
            },
            {
              "internalType": "string",
              "name": "description",
              "type": "string"
            },
            {
              "internalType": "bool",
              "name": "passed",
              "type": "bool"
            },
            {
              "internalType": "bool",
              "name": "paid",
              "type": "bool"
            },
            {
              "internalType": "address payable",
              "name": "beneficiary",
              "type": "address"
            },
            {
              "internalType": "address",
              "name": "proposer",
              "type": "address"
            },
            {
              "internalType": "address",
              "name": "executor",
              "type": "address"
            }
          ],
          "internalType": "struct DominionDAO.ProposalStruct",
          "name": "",
          "type": "tuple"
        }
      ],
      "stateMutability": "view",
      "type": "function",
      "constant": true
    },
    {
      "inputs": [
        {
          "internalType": "uint256",
          "name": "proposalId",
          "type": "uint256"
        }
      ],
      "name": "getotesOf",
      "outputs": [
        {
          "components": [
            {
              "internalType": "address",
              "name": "voter",
              "type": "address"
            },
            {
              "internalType": "uint256",
              "name": "timestamp",
              "type": "uint256"
            },
            {
              "internalType": "bool",
              "name": "choosen",
              "type": "bool"
            }
          ],
          "internalType": "struct DominionDAO.VotedStruct[]",
          "name": "",
          "type": "tuple[]"
        }
      ],
      "stateMutability": "view",
      "type": "function",
      "constant": true
    },
    {
      "inputs": [],
      "name": "getStakeholderVotes",
      "outputs": [
        {
          "internalType": "uint256[]",
          "name": "",
          "type": "uint256[]"
        }
      ],
      "stateMutability": "view",
      "type": "function",
      "constant": true
    },
    {
      "inputs": [],
      "name": "getStakeholderBalance",
      "outputs": [
        {
          "internalType": "uint256",
          "name": "",
          "type": "uint256"
        }
      ],
      "stateMutability": "view",
      "type": "function",
      "constant": true
    },
    {
      "inputs": [],
      "name": "isStakeholder",
      "outputs": [
        {
          "internalType": "bool",
          "name": "",
          "type": "bool"
        }
      ],
      "stateMutability": "view",
      "type": "function",
      "constant": true
    },
    {
      "inputs": [],
      "name": "getContributorBalance",
      "outputs": [
        {
          "internalType": "uint256",
          "name": "",
          "type": "uint256"
        }
      ],
      "stateMutability": "view",
      "type": "function",
      "constant": true
    },
    {
      "inputs": [],
      "name": "isContributor",
      "outputs": [
        {
          "internalType": "bool",
          "name": "",
          "type": "bool"
        }
      ],
      "stateMutability": "view",
      "type": "function",
      "constant": true
    },
    {
      "inputs": [],
      "name": "getBalance",
      "outputs": [
        {
          "internalType": "uint256",
          "name": "",
          "type": "uint256"
        }
      ],
      "stateMutability": "view",
      "type": "function",
      "constant": true
    }
  ],
  "bytecode": "0x6101006040527fa0bb1af1c90aa52ed052b92714ff0087008cc720049bf1af77cca2600b31e80c6080908152507ff4bb84e1768dd286358a736d195a0b228621173f655a73b89bf8b191ed0ba07d60a09081525067016345785d8a000060c090815250607863ffffffff1660e09063ffffffff1681525034801561008257600080fd5b50600160008190555060805160a05160c05160e051613c62610118600039600061103201526000611ab70152600081816105a30152818161083501528181610df801528181610ecc015281816110bb015281816111ab015281816112c50152818161155201528181611a3d01528181611b7b0152611d6d0152600081816109c401528181611ba50152611c2a0152613c626000f3fe60806040526004361061012a5760003560e01c806391d14854116100ab578063bd9728161161006f578063bd97281614610406578063c02146ac14610431578063c7f758a81461045c578063d547741f14610499578063d6cc8016146104c2578063d7bb99ba146104ed5761012a565b806391d148541461030d578063a217fddf1461034a578063a22f1db714610375578063b31f111c146103a0578063b59fe829146103c95761012a565b806336568abe116100f257806336568abe146102265780633cdb48c21461024f57806362564c481461027a5780636a80d84d146102a55780637cdc2eb7146102d05761012a565b806301ffc9a71461012f578063119c37c81461016c57806312065fe014610195578063248a9ca3146101c05780632f2ff15d146101fd575b600080fd5b34801561013b57600080fd5b5061015660048036038101906101519190612747565b61050b565b604051610163919061278f565b60405180910390f35b34801561017857600080fd5b50610193600480360381019061018e91906127e0565b610585565b005b3480156101a157600080fd5b506101aa61087c565b6040516101b7919061281c565b60405180910390f35b3480156101cc57600080fd5b506101e760048036038101906101e2919061286d565b6108c3565b6040516101f491906128a9565b60405180910390f35b34801561020957600080fd5b50610224600480360381019061021f9190612922565b6108e3565b005b34801561023257600080fd5b5061024d60048036038101906102489190612922565b610904565b005b34801561025b57600080fd5b50610264610987565b604051610271919061281c565b60405180910390f35b34801561028657600080fd5b5061028f610a72565b60405161029c9190612c16565b60405180910390f35b3480156102b157600080fd5b506102ba610dbb565b6040516102c7919061281c565b60405180910390f35b3480156102dc57600080fd5b506102f760048036038101906102f29190612d6d565b610ea6565b6040516103049190612f17565b60405180910390f35b34801561031957600080fd5b50610334600480360381019061032f9190612922565b6110fc565b604051610341919061278f565b60405180910390f35b34801561035657600080fd5b5061035f611167565b60405161036c91906128a9565b60405180910390f35b34801561038157600080fd5b5061038a61116e565b6040516103979190612fe8565b60405180910390f35b3480156103ac57600080fd5b506103c760048036038101906103c29190613036565b6112a7565b005b3480156103d557600080fd5b506103f060048036038101906103eb91906127e0565b611592565b6040516103fd9190613167565b60405180910390f35b34801561041257600080fd5b5061041b61167f565b604051610428919061281c565b60405180910390f35b34801561043d57600080fd5b50610446611685565b604051610453919061278f565b60405180910390f35b34801561046857600080fd5b50610483600480360381019061047e91906127e0565b6116ce565b6040516104909190612f17565b60405180910390f35b3480156104a557600080fd5b506104c060048036038101906104bb9190612922565b61198a565b005b3480156104ce57600080fd5b506104d76119ab565b6040516104e4919061278f565b60405180910390f35b6104f56119f4565b604051610502919061281c565b60405180910390f35b60007f7965db0b000000000000000000000000000000000000000000000000000000007bffffffffffffffffffffffffffffffffffffffffffffffffffffffff1916827bffffffffffffffffffffffffffffffffffffffffffffffffffffffff1916148061057e575061057d82611da6565b5b9050919050565b604051806060016040528060298152602001613c04602991396105c87f0000000000000000000000000000000000000000000000000000000000000000336110fc565b819061060a576040517f08c379a000000000000000000000000000000000000000000000000000000000815260040161060191906131d3565b60405180910390fd5b50610613611e10565b600060046000848152602001908152602001600020905080600101546003541015610673576040517f08c379a000000000000000000000000000000000000000000000000000000000815260040161066a90613241565b60405180910390fd5b8060070160019054906101000a900460ff16156106c5576040517f08c379a00000000000000000000000000000000000000000000000000000000081526004016106bc906132ad565b60405180910390fd5b806004015481600301541015610710576040517f08c379a000000000000000000000000000000000000000000000000000000000815260040161070790613319565b60405180910390fd5b6107428160070160029054906101000a900473ffffffffffffffffffffffffffffffffffffffff168260010154611e60565b5060018160070160016101000a81548160ff021916908315150217905550338160090160006101000a81548173ffffffffffffffffffffffffffffffffffffffff021916908373ffffffffffffffffffffffffffffffffffffffff1602179055508060010154600360008282546107b99190613368565b925050819055508060070160029054906101000a900473ffffffffffffffffffffffffffffffffffffffff1673ffffffffffffffffffffffffffffffffffffffff163373ffffffffffffffffffffffffffffffffffffffff167fa596782d699d74613fcbf59d33e720baabd313d6be9c95e2268f305430305eb77f000000000000000000000000000000000000000000000000000000000000000084600101546040516108679291906133e8565b60405180910390a350610878611f18565b5050565b6000600760003373ffffffffffffffffffffffffffffffffffffffff1673ffffffffffffffffffffffffffffffffffffffff16815260200190815260200160002054905090565b600060016000838152602001908152602001600020600101549050919050565b6108ec826108c3565b6108f581611f22565b6108ff8383611f36565b505050565b61090c612016565b73ffffffffffffffffffffffffffffffffffffffff168173ffffffffffffffffffffffffffffffffffffffff1614610979576040517f08c379a000000000000000000000000000000000000000000000000000000000815260040161097090613496565b60405180910390fd5b610983828261201e565b5050565b60006040518060400160405280600c81526020017f556e617574686f72697a656400000000000000000000000000000000000000008152506109e97f0000000000000000000000000000000000000000000000000000000000000000336110fc565b8190610a2b576040517f08c379a0000000000000000000000000000000000000000000000000000000008152600401610a2291906131d3565b60405180910390fd5b50600760003373ffffffffffffffffffffffffffffffffffffffff1673ffffffffffffffffffffffffffffffffffffffff1681526020019081526020016000205491505090565b606060025467ffffffffffffffff811115610a9057610a8f612c42565b5b604051908082528060200260200182016040528015610ac957816020015b610ab6612591565b815260200190600190039081610aae5790505b50905060005b600254811015610db75760046000828152602001908152602001600020604051806101800160405290816000820154815260200160018201548152602001600282015481526020016003820154815260200160048201548152602001600582018054610b3a906134e5565b80601f0160208091040260200160405190810160405280929190818152602001828054610b66906134e5565b8015610bb35780601f10610b8857610100808354040283529160200191610bb3565b820191906000526020600020905b815481529060010190602001808311610b9657829003601f168201915b50505050508152602001600682018054610bcc906134e5565b80601f0160208091040260200160405190810160405280929190818152602001828054610bf8906134e5565b8015610c455780601f10610c1a57610100808354040283529160200191610c45565b820191906000526020600020905b815481529060010190602001808311610c2857829003601f168201915b505050505081526020016007820160009054906101000a900460ff161515151581526020016007820160019054906101000a900460ff161515151581526020016007820160029054906101000a900473ffffffffffffffffffffffffffffffffffffffff1673ffffffffffffffffffffffffffffffffffffffff1673ffffffffffffffffffffffffffffffffffffffff1681526020016008820160009054906101000a900473ffffffffffffffffffffffffffffffffffffffff1673ffffffffffffffffffffffffffffffffffffffff1673ffffffffffffffffffffffffffffffffffffffff1681526020016009820160009054906101000a900473ffffffffffffffffffffffffffffffffffffffff1673ffffffffffffffffffffffffffffffffffffffff1673ffffffffffffffffffffffffffffffffffffffff1681525050828281518110610d9957610d98613517565b5b60200260200101819052508080610daf90613546565b915050610acf565b5090565b60006040518060400160405280600c81526020017f556e617574686f72697a65640000000000000000000000000000000000000000815250610e1d7f0000000000000000000000000000000000000000000000000000000000000000336110fc565b8190610e5f576040517f08c379a0000000000000000000000000000000000000000000000000000000008152600401610e5691906131d3565b60405180910390fd5b50600860003373ffffffffffffffffffffffffffffffffffffffff1673ffffffffffffffffffffffffffffffffffffffff1681526020019081526020016000205491505090565b610eae612591565b604051806060016040528060268152602001613bde60269139610ef17f0000000000000000000000000000000000000000000000000000000000000000336110fc565b8190610f33576040517f08c379a0000000000000000000000000000000000000000000000000000000008152600401610f2a91906131d3565b60405180910390fd5b50600060026000815480929190610f4990613546565b9190505590506000600460008381526020019081526020016000209050818160000181905550338160080160006101000a81548173ffffffffffffffffffffffffffffffffffffffff021916908373ffffffffffffffffffffffffffffffffffffffff16021790555087816005019080519060200190610fca929190612638565b5086816006019080519060200190610fe3929190612638565b50848160010181905550858160070160026101000a81548173ffffffffffffffffffffffffffffffffffffffff021916908373ffffffffffffffffffffffffffffffffffffffff1602179055507f000000000000000000000000000000000000000000000000000000000000000063ffffffff1642611062919061358f565b81600201819055508573ffffffffffffffffffffffffffffffffffffffff163373ffffffffffffffffffffffffffffffffffffffff167fa596782d699d74613fcbf59d33e720baabd313d6be9c95e2268f305430305eb77f0000000000000000000000000000000000000000000000000000000000000000886040516110e9929190613631565b60405180910390a3505050949350505050565b60006001600084815260200190815260200160002060000160008373ffffffffffffffffffffffffffffffffffffffff1673ffffffffffffffffffffffffffffffffffffffff16815260200190815260200160002060009054906101000a900460ff16905092915050565b6000801b81565b60606040518060400160405280600c81526020017f556e617574686f72697a656400000000000000000000000000000000000000008152506111d07f0000000000000000000000000000000000000000000000000000000000000000336110fc565b8190611212576040517f08c379a000000000000000000000000000000000000000000000000000000000815260040161120991906131d3565b60405180910390fd5b50600560003373ffffffffffffffffffffffffffffffffffffffff1673ffffffffffffffffffffffffffffffffffffffff16815260200190815260200160002080548060200260200160405190810160405280929190818152602001828054801561129c57602002820191906000526020600020905b815481526020019060010190808311611288575b505050505091505090565b604051806060016040528060298152602001613c04602991396112ea7f0000000000000000000000000000000000000000000000000000000000000000336110fc565b819061132c576040517f08c379a000000000000000000000000000000000000000000000000000000000815260040161132391906131d3565b60405180910390fd5b50600060046000858152602001908152602001600020905061134d81612100565b82156113725780600301600081548092919061136890613546565b919050555061138d565b80600401600081548092919061138790613546565b91905055505b600560003373ffffffffffffffffffffffffffffffffffffffff1673ffffffffffffffffffffffffffffffffffffffff16815260200190815260200160002081600001549080600181540180825580915050600190039060005260206000200160009091909190915055600660008260000154815260200190815260200160002060405180606001604052803373ffffffffffffffffffffffffffffffffffffffff168152602001428152602001851515815250908060018154018082558091505060019003906000526020600020906003020160009091909190915060008201518160000160006101000a81548173ffffffffffffffffffffffffffffffffffffffff021916908373ffffffffffffffffffffffffffffffffffffffff1602179055506020820151816001015560408201518160020160006101000a81548160ff02191690831515021790555050508060070160029054906101000a900473ffffffffffffffffffffffffffffffffffffffff1673ffffffffffffffffffffffffffffffffffffffff163373ffffffffffffffffffffffffffffffffffffffff167fa596782d699d74613fcbf59d33e720baabd313d6be9c95e2268f305430305eb77f000000000000000000000000000000000000000000000000000000000000000084600101546040516115849291906136b9565b60405180910390a350505050565b606060066000838152602001908152602001600020805480602002602001604051908101604052809291908181526020016000905b8282101561167457838290600052602060002090600302016040518060600160405290816000820160009054906101000a900473ffffffffffffffffffffffffffffffffffffffff1673ffffffffffffffffffffffffffffffffffffffff1673ffffffffffffffffffffffffffffffffffffffff168152602001600182015481526020016002820160009054906101000a900460ff161515151581525050815260200190600101906115c7565b505050509050919050565b60035481565b600080600860003373ffffffffffffffffffffffffffffffffffffffff1673ffffffffffffffffffffffffffffffffffffffff1681526020019081526020016000205411905090565b6116d6612591565b60046000838152602001908152602001600020604051806101800160405290816000820154815260200160018201548152602001600282015481526020016003820154815260200160048201548152602001600582018054611737906134e5565b80601f0160208091040260200160405190810160405280929190818152602001828054611763906134e5565b80156117b05780601f10611785576101008083540402835291602001916117b0565b820191906000526020600020905b81548152906001019060200180831161179357829003601f168201915b505050505081526020016006820180546117c9906134e5565b80601f01602080910402602001604051908101604052809291908181526020018280546117f5906134e5565b80156118425780601f1061181757610100808354040283529160200191611842565b820191906000526020600020905b81548152906001019060200180831161182557829003601f168201915b505050505081526020016007820160009054906101000a900460ff161515151581526020016007820160019054906101000a900460ff161515151581526020016007820160029054906101000a900473ffffffffffffffffffffffffffffffffffffffff1673ffffffffffffffffffffffffffffffffffffffff1673ffffffffffffffffffffffffffffffffffffffff1681526020016008820160009054906101000a900473ffffffffffffffffffffffffffffffffffffffff1673ffffffffffffffffffffffffffffffffffffffff1673ffffffffffffffffffffffffffffffffffffffff1681526020016009820160009054906101000a900473ffffffffffffffffffffffffffffffffffffffff1673ffffffffffffffffffffffffffffffffffffffff1673ffffffffffffffffffffffffffffffffffffffff16815250509050919050565b611993826108c3565b61199c81611f22565b6119a6838361201e565b505050565b600080600760003373ffffffffffffffffffffffffffffffffffffffff1673ffffffffffffffffffffffffffffffffffffffff1681526020019081526020016000205411905090565b6000803411611a38576040517f08c379a0000000000000000000000000000000000000000000000000000000008152600401611a2f90613741565b60405180910390fd5b611a627f0000000000000000000000000000000000000000000000000000000000000000336110fc565b611c5657600034600760003373ffffffffffffffffffffffffffffffffffffffff1673ffffffffffffffffffffffffffffffffffffffff16815260200190815260200160002054611ab3919061358f565b90507f00000000000000000000000000000000000000000000000000000000000000008110611bcf5780600860003373ffffffffffffffffffffffffffffffffffffffff1673ffffffffffffffffffffffffffffffffffffffff1681526020019081526020016000208190555034600760003373ffffffffffffffffffffffffffffffffffffffff1673ffffffffffffffffffffffffffffffffffffffff1681526020019081526020016000206000828254611b6f919061358f565b92505081905550611ba07f000000000000000000000000000000000000000000000000000000000000000033612295565b611bca7f000000000000000000000000000000000000000000000000000000000000000033612295565b611c50565b34600760003373ffffffffffffffffffffffffffffffffffffffff1673ffffffffffffffffffffffffffffffffffffffff1681526020019081526020016000206000828254611c1e919061358f565b92505081905550611c4f7f000000000000000000000000000000000000000000000000000000000000000033612295565b5b50611d03565b34600760003373ffffffffffffffffffffffffffffffffffffffff1673ffffffffffffffffffffffffffffffffffffffff1681526020019081526020016000206000828254611ca5919061358f565b9250508190555034600860003373ffffffffffffffffffffffffffffffffffffffff1673ffffffffffffffffffffffffffffffffffffffff1681526020019081526020016000206000828254611cfb919061358f565b925050819055505b3460036000828254611d15919061358f565b925050819055503073ffffffffffffffffffffffffffffffffffffffff163373ffffffffffffffffffffffffffffffffffffffff167fa596782d699d74613fcbf59d33e720baabd313d6be9c95e2268f305430305eb77f000000000000000000000000000000000000000000000000000000000000000034604051611d9b9291906137ad565b60405180910390a390565b60007f01ffc9a7000000000000000000000000000000000000000000000000000000007bffffffffffffffffffffffffffffffffffffffffffffffffffffffff1916827bffffffffffffffffffffffffffffffffffffffffffffffffffffffff1916149050919050565b60026000541415611e56576040517f08c379a0000000000000000000000000000000000000000000000000000000008152600401611e4d90613835565b60405180910390fd5b6002600081905550565b6000808373ffffffffffffffffffffffffffffffffffffffff1683604051611e8790613886565b60006040518083038185875af1925050503d8060008114611ec4576040519150601f19603f3d011682016040523d82523d6000602084013e611ec9565b606091505b5050905080611f0d576040517f08c379a0000000000000000000000000000000000000000000000000000000008152600401611f04906138e7565b60405180910390fd5b600191505092915050565b6001600081905550565b611f3381611f2e612016565b6122a3565b50565b611f4082826110fc565b61201257600180600084815260200190815260200160002060000160008373ffffffffffffffffffffffffffffffffffffffff1673ffffffffffffffffffffffffffffffffffffffff16815260200190815260200160002060006101000a81548160ff021916908315150217905550611fb7612016565b73ffffffffffffffffffffffffffffffffffffffff168173ffffffffffffffffffffffffffffffffffffffff16837f2f8788117e7eff1d82e926ec794901d17c78024a50270940304540a733656f0d60405160405180910390a45b5050565b600033905090565b61202882826110fc565b156120fc5760006001600084815260200190815260200160002060000160008373ffffffffffffffffffffffffffffffffffffffff1673ffffffffffffffffffffffffffffffffffffffff16815260200190815260200160002060006101000a81548160ff0219169083151502179055506120a1612016565b73ffffffffffffffffffffffffffffffffffffffff168173ffffffffffffffffffffffffffffffffffffffff16837ff6391f5c32d9c69d2a47ea670b442974b53935d1edc7fd64eb21e047a839171b60405160405180910390a45b5050565b8060070160009054906101000a900460ff1680612121575042816002015411155b1561217e5760018160070160006101000a81548160ff0219169083151502179055506040517f08c379a000000000000000000000000000000000000000000000000000000000815260040161217590613953565b60405180910390fd5b6000600560003373ffffffffffffffffffffffffffffffffffffffff1673ffffffffffffffffffffffffffffffffffffffff16815260200190815260200160002080548060200260200160405190810160405280929190818152602001828054801561220957602002820191906000526020600020905b8154815260200190600101908083116121f5575b5050505050905060005b81518110156122905781818151811061222f5761222e613517565b5b60200260200101518360000154141561227d576040517f08c379a0000000000000000000000000000000000000000000000000000000008152600401612274906139bf565b60405180910390fd5b808061228890613546565b915050612213565b505050565b61229f8282611f36565b5050565b6122ad82826110fc565b612324576122ba81612328565b6122c88360001c6020612355565b6040516020016122d9929190613ab3565b6040516020818303038152906040526040517f08c379a000000000000000000000000000000000000000000000000000000000815260040161231b91906131d3565b60405180910390fd5b5050565b606061234e8273ffffffffffffffffffffffffffffffffffffffff16601460ff16612355565b9050919050565b6060600060028360026123689190613aed565b612372919061358f565b67ffffffffffffffff81111561238b5761238a612c42565b5b6040519080825280601f01601f1916602001820160405280156123bd5781602001600182028036833780820191505090505b5090507f3000000000000000000000000000000000000000000000000000000000000000816000815181106123f5576123f4613517565b5b60200101907effffffffffffffffffffffffffffffffffffffffffffffffffffffffffffff1916908160001a9053507f78000000000000000000000000000000000000000000000000000000000000008160018151811061245957612458613517565b5b60200101907effffffffffffffffffffffffffffffffffffffffffffffffffffffffffffff1916908160001a905350600060018460026124999190613aed565b6124a3919061358f565b90505b6001811115612543577f3031323334353637383961626364656600000000000000000000000000000000600f8616601081106124e5576124e4613517565b5b1a60f81b8282815181106124fc576124fb613517565b5b60200101907effffffffffffffffffffffffffffffffffffffffffffffffffffffffffffff1916908160001a905350600485901c94508061253c90613b47565b90506124a6565b5060008414612587576040517f08c379a000000000000000000000000000000000000000000000000000000000815260040161257e90613bbd565b60405180910390fd5b8091505092915050565b60405180610180016040528060008152602001600081526020016000815260200160008152602001600081526020016060815260200160608152602001600015158152602001600015158152602001600073ffffffffffffffffffffffffffffffffffffffff168152602001600073ffffffffffffffffffffffffffffffffffffffff168152602001600073ffffffffffffffffffffffffffffffffffffffff1681525090565b828054612644906134e5565b90600052602060002090601f01602090048101928261266657600085556126ad565b82601f1061267f57805160ff19168380011785556126ad565b828001600101855582156126ad579182015b828111156126ac578251825591602001919060010190612691565b5b5090506126ba91906126be565b5090565b5b808211156126d75760008160009055506001016126bf565b5090565b6000604051905090565b600080fd5b600080fd5b60007fffffffff0000000000000000000000000000000000000000000000000000000082169050919050565b612724816126ef565b811461272f57600080fd5b50565b6000813590506127418161271b565b92915050565b60006020828403121561275d5761275c6126e5565b5b600061276b84828501612732565b91505092915050565b60008115159050919050565b61278981612774565b82525050565b60006020820190506127a46000830184612780565b92915050565b6000819050919050565b6127bd816127aa565b81146127c857600080fd5b50565b6000813590506127da816127b4565b92915050565b6000602082840312156127f6576127f56126e5565b5b6000612804848285016127cb565b91505092915050565b612816816127aa565b82525050565b6000602082019050612831600083018461280d565b92915050565b6000819050919050565b61284a81612837565b811461285557600080fd5b50565b60008135905061286781612841565b92915050565b600060208284031215612883576128826126e5565b5b600061289184828501612858565b91505092915050565b6128a381612837565b82525050565b60006020820190506128be600083018461289a565b92915050565b600073ffffffffffffffffffffffffffffffffffffffff82169050919050565b60006128ef826128c4565b9050919050565b6128ff816128e4565b811461290a57600080fd5b50565b60008135905061291c816128f6565b92915050565b60008060408385031215612939576129386126e5565b5b600061294785828601612858565b92505060206129588582860161290d565b9150509250929050565b600081519050919050565b600082825260208201905092915050565b6000819050602082019050919050565b612997816127aa565b82525050565b600081519050919050565b600082825260208201905092915050565b60005b838110156129d75780820151818401526020810190506129bc565b838111156129e6576000848401525b50505050565b6000601f19601f8301169050919050565b6000612a088261299d565b612a1281856129a8565b9350612a228185602086016129b9565b612a2b816129ec565b840191505092915050565b612a3f81612774565b82525050565b6000612a50826128c4565b9050919050565b612a6081612a45565b82525050565b612a6f816128e4565b82525050565b600061018083016000830151612a8e600086018261298e565b506020830151612aa1602086018261298e565b506040830151612ab4604086018261298e565b506060830151612ac7606086018261298e565b506080830151612ada608086018261298e565b5060a083015184820360a0860152612af282826129fd565b91505060c083015184820360c0860152612b0c82826129fd565b91505060e0830151612b2160e0860182612a36565b50610100830151612b36610100860182612a36565b50610120830151612b4b610120860182612a57565b50610140830151612b60610140860182612a66565b50610160830151612b75610160860182612a66565b508091505092915050565b6000612b8c8383612a75565b905092915050565b6000602082019050919050565b6000612bac82612962565b612bb6818561296d565b935083602082028501612bc88561297e565b8060005b85811015612c045784840389528151612be58582612b80565b9450612bf083612b94565b925060208a01995050600181019050612bcc565b50829750879550505050505092915050565b60006020820190508181036000830152612c308184612ba1565b905092915050565b600080fd5b600080fd5b7f4e487b7100000000000000000000000000000000000000000000000000000000600052604160045260246000fd5b612c7a826129ec565b810181811067ffffffffffffffff82111715612c9957612c98612c42565b5b80604052505050565b6000612cac6126db565b9050612cb88282612c71565b919050565b600067ffffffffffffffff821115612cd857612cd7612c42565b5b612ce1826129ec565b9050602081019050919050565b82818337600083830152505050565b6000612d10612d0b84612cbd565b612ca2565b905082815260208101848484011115612d2c57612d2b612c3d565b5b612d37848285612cee565b509392505050565b600082601f830112612d5457612d53612c38565b5b8135612d64848260208601612cfd565b91505092915050565b60008060008060808587031215612d8757612d866126e5565b5b600085013567ffffffffffffffff811115612da557612da46126ea565b5b612db187828801612d3f565b945050602085013567ffffffffffffffff811115612dd257612dd16126ea565b5b612dde87828801612d3f565b9350506040612def8782880161290d565b9250506060612e00878288016127cb565b91505092959194509250565b600061018083016000830151612e25600086018261298e565b506020830151612e38602086018261298e565b506040830151612e4b604086018261298e565b506060830151612e5e606086018261298e565b506080830151612e71608086018261298e565b5060a083015184820360a0860152612e8982826129fd565b91505060c083015184820360c0860152612ea382826129fd565b91505060e0830151612eb860e0860182612a36565b50610100830151612ecd610100860182612a36565b50610120830151612ee2610120860182612a57565b50610140830151612ef7610140860182612a66565b50610160830151612f0c610160860182612a66565b508091505092915050565b60006020820190508181036000830152612f318184612e0c565b905092915050565b600081519050919050565b600082825260208201905092915050565b6000819050602082019050919050565b6000612f71838361298e565b60208301905092915050565b6000602082019050919050565b6000612f9582612f39565b612f9f8185612f44565b9350612faa83612f55565b8060005b83811015612fdb578151612fc28882612f65565b9750612fcd83612f7d565b925050600181019050612fae565b5085935050505092915050565b600060208201905081810360008301526130028184612f8a565b905092915050565b61301381612774565b811461301e57600080fd5b50565b6000813590506130308161300a565b92915050565b6000806040838503121561304d5761304c6126e5565b5b600061305b858286016127cb565b925050602061306c85828601613021565b9150509250929050565b600081519050919050565b600082825260208201905092915050565b6000819050602082019050919050565b6060820160008201516130b86000850182612a66565b5060208201516130cb602085018261298e565b5060408201516130de6040850182612a36565b50505050565b60006130f083836130a2565b60608301905092915050565b6000602082019050919050565b600061311482613076565b61311e8185613081565b935061312983613092565b8060005b8381101561315a57815161314188826130e4565b975061314c836130fc565b92505060018101905061312d565b5085935050505092915050565b600060208201905081810360008301526131818184613109565b905092915050565b600082825260208201905092915050565b60006131a58261299d565b6131af8185613189565b93506131bf8185602086016129b9565b6131c8816129ec565b840191505092915050565b600060208201905081810360008301526131ed818461319a565b905092915050565b7f496e73756666696369656e742066756e64000000000000000000000000000000600082015250565b600061322b601183613189565b9150613236826131f5565b602082019050919050565b6000602082019050818103600083015261325a8161321e565b9050919050565b7f5061796d656e7420616c7265616479206d616465000000000000000000000000600082015250565b6000613297601483613189565b91506132a282613261565b602082019050919050565b600060208201905081810360008301526132c68161328a565b9050919050565b7f496e73756666696369656e7420766f7465730000000000000000000000000000600082015250565b6000613303601283613189565b915061330e826132cd565b602082019050919050565b60006020820190508181036000830152613332816132f6565b9050919050565b7f4e487b7100000000000000000000000000000000000000000000000000000000600052601160045260246000fd5b6000613373826127aa565b915061337e836127aa565b92508282101561339157613390613339565b5b828203905092915050565b7f5041594d454e545f5452414e5346455200000000000000000000000000000000600082015250565b60006133d2601083613189565b91506133dd8261339c565b602082019050919050565b60006060820190506133fd600083018561289a565b818103602083015261340e816133c5565b905061341d604083018461280d565b9392505050565b7f416363657373436f6e74726f6c3a2063616e206f6e6c792072656e6f756e636560008201527f20726f6c657320666f722073656c660000000000000000000000000000000000602082015250565b6000613480602f83613189565b915061348b82613424565b604082019050919050565b600060208201905081810360008301526134af81613473565b9050919050565b7f4e487b7100000000000000000000000000000000000000000000000000000000600052602260045260246000fd5b600060028204905060018216806134fd57607f821691505b60208210811415613511576135106134b6565b5b50919050565b7f4e487b7100000000000000000000000000000000000000000000000000000000600052603260045260246000fd5b6000613551826127aa565b91507fffffffffffffffffffffffffffffffffffffffffffffffffffffffffffffffff82141561358457613583613339565b5b600182019050919050565b600061359a826127aa565b91506135a5836127aa565b9250827fffffffffffffffffffffffffffffffffffffffffffffffffffffffffffffffff038211156135da576135d9613339565b5b828201905092915050565b7f50726f706f73616c207261697365640000000000000000000000000000000000600082015250565b600061361b600f83613189565b9150613626826135e5565b602082019050919050565b6000606082019050613646600083018561289a565b81810360208301526136578161360e565b9050613666604083018461280d565b9392505050565b7f50726f706f73616c20766f746500000000000000000000000000000000000000600082015250565b60006136a3600d83613189565b91506136ae8261366d565b602082019050919050565b60006060820190506136ce600083018561289a565b81810360208301526136df81613696565b90506136ee604083018461280d565b9392505050565b7f496e7375666620616d6f756e7400000000000000000000000000000000000000600082015250565b600061372b600d83613189565b9150613736826136f5565b602082019050919050565b6000602082019050818103600083015261375a8161371e565b9050919050565b7f436f6e747269627574696f6e2072656369657665640000000000000000000000600082015250565b6000613797601583613189565b91506137a282613761565b602082019050919050565b60006060820190506137c2600083018561289a565b81810360208301526137d38161378a565b90506137e2604083018461280d565b9392505050565b7f5265656e7472616e637947756172643a207265656e7472616e742063616c6c00600082015250565b600061381f601f83613189565b915061382a826137e9565b602082019050919050565b6000602082019050818103600083015261384e81613812565b9050919050565b600081905092915050565b50565b6000613870600083613855565b915061387b82613860565b600082019050919050565b600061389182613863565b9150819050919050565b7f5061796d656e74206661696c6564000000000000000000000000000000000000600082015250565b60006138d1600e83613189565b91506138dc8261389b565b602082019050919050565b60006020820190508181036000830152613900816138c4565b9050919050565b7f50726f706f73616c206475726174696f6e206578706972656400000000000000600082015250565b600061393d601983613189565b915061394882613907565b602082019050919050565b6000602082019050818103600083015261396c81613930565b9050919050565b7f444f75626c6520766f74696e67206e6f7420616c6c6f77656400000000000000600082015250565b60006139a9601983613189565b91506139b482613973565b602082019050919050565b600060208201905081810360008301526139d88161399c565b9050919050565b600081905092915050565b7f416363657373436f6e74726f6c3a206163636f756e7420000000000000000000600082015250565b6000613a206017836139df565b9150613a2b826139ea565b601782019050919050565b6000613a418261299d565b613a4b81856139df565b9350613a5b8185602086016129b9565b80840191505092915050565b7f206973206d697373696e6720726f6c6520000000000000000000000000000000600082015250565b6000613a9d6011836139df565b9150613aa882613a67565b601182019050919050565b6000613abe82613a13565b9150613aca8285613a36565b9150613ad582613a90565b9150613ae18284613a36565b91508190509392505050565b6000613af8826127aa565b9150613b03836127aa565b9250817fffffffffffffffffffffffffffffffffffffffffffffffffffffffffffffffff0483118215151615613b3c57613b3b613339565b5b828202905092915050565b6000613b52826127aa565b91506000821415613b6657613b65613339565b5b600182039050919050565b7f537472696e67733a20686578206c656e67746820696e73756666696369656e74600082015250565b6000613ba7602083613189565b9150613bb282613b71565b602082019050919050565b60006020820190508181036000830152613bd681613b9a565b905091905056fe70726f706f73616c206372656174696f6e206f6e6c7920666f72207374616b65686f6c646572756e617574686f72697a6564203a206f6e6c79207374616b65686f6c646572732063616e20766f7465a26469706673582212209fd7a9c3adb20046d6d16e11116612945f0e6d92fb682612f6f7809649a8419e64736f6c634300080b0033",
  "immutableReferences": {
    "1553": [
      {
        "length": 32,
        "start": 2500
      },
      {
        "length": 32,
        "start": 7077
      },
      {
        "length": 32,
        "start": 7210
      }
    ],
    "1558": [
      {
        "length": 32,
        "start": 1443
      },
      {
        "length": 32,
        "start": 2101
      },
      {
        "length": 32,
        "start": 3576
      },
      {
        "length": 32,
        "start": 3788
      },
      {
        "length": 32,
        "start": 4283
      },
      {
        "length": 32,
        "start": 4523
      },
      {
        "length": 32,
        "start": 4805
      },
      {
        "length": 32,
        "start": 5458
      },
      {
        "length": 32,
        "start": 6717
      },
      {
        "length": 32,
        "start": 7035
      },
      {
        "length": 32,
        "start": 7533
      }
    ],
    "1561": [
      {
        "length": 32,
        "start": 6839
      }
    ],
    "1564": [
      {
        "length": 32,
        "start": 4146
      }
    ]
  },
  "source": "// SPDX-License-Identifier: MIT\r\npragma solidity ^0.8.7;\r\n\r\nimport \"@openzeppelin/contracts/security/ReentrancyGuard.sol\";\r\nimport \"@openzeppelin/contracts/access/AccessControl.sol\";\r\n\r\ncontract DominionDAO is ReentrancyGuard, AccessControl {\r\n    bytes32 private immutable CONTRIBUTOR_ROLE = keccak256(\"CONTRIBUTOR\");\r\n    bytes32 private immutable STAKEHOLDER_ROLE = keccak256(\"STAKEHOLDER\");\r\n    uint256 immutable MIN_STAKEHOLDER_CONTRIBUTION = 0.1 ether;\r\n\r\n    uint32 immutable MIN_VOTE_DURATION = 2 minutes;\r\n    uint256 totalProposals;\r\n    uint256 public daoBalance;\r\n\r\n    mapping(uint256 => ProposalStruct) private raisedProposals;\r\n    mapping(address => uint256[]) private stakeholderVotes;\r\n    mapping(uint256 => VotedStruct[]) private votedOn;\r\n    mapping(address => uint256) private contributors;\r\n    mapping(address => uint256) private stakeholders;\r\n\r\n    struct ProposalStruct {\r\n        uint256 id;\r\n        uint256 amount;\r\n        uint256 duration;\r\n        uint256 upvotes;\r\n        uint256 downvotes;\r\n        string title;\r\n        string description;\r\n        bool passed;\r\n        bool paid;\r\n        address payable beneficiary;\r\n        address proposer;\r\n        address executor;\r\n    }\r\n    struct VotedStruct {\r\n        address voter;\r\n        uint256 timestamp;\r\n        bool choosen;\r\n    }\r\n\r\n    event Action(\r\n        address indexed initiator,\r\n        bytes32 role,\r\n        string message,\r\n        address indexed beneficiary,\r\n        uint256 amount\r\n    );\r\n    modifier stakeholderONly(string memory message) {\r\n        require(hasRole(STAKEHOLDER_ROLE, msg.sender), message);\r\n        _;\r\n    }\r\n    modifier contributorOnly(string memory message) {\r\n        require(hasRole(CONTRIBUTOR_ROLE, msg.sender), message);\r\n        _;\r\n    }\r\n\r\n    function createProposal(\r\n        string memory title,\r\n        string memory description,\r\n        address beneficiary,\r\n        uint256 amount\r\n    )\r\n        external\r\n        stakeholderONly(\"proposal creation only for stakeholder\")\r\n        returns (ProposalStruct memory)\r\n    {\r\n        uint256 proposalId = totalProposals++;\r\n        ProposalStruct storage proposal = raisedProposals[proposalId];\r\n\r\n        proposal.id = proposalId;\r\n        proposal.proposer = payable(msg.sender);\r\n        proposal.title = title;\r\n        proposal.description = description;\r\n        proposal.amount = amount;\r\n        proposal.beneficiary = payable(beneficiary);\r\n        proposal.duration = block.timestamp + MIN_VOTE_DURATION;\r\n\r\n        emit Action(\r\n            msg.sender,\r\n            STAKEHOLDER_ROLE,\r\n            \"Proposal raised\",\r\n            beneficiary,\r\n            amount\r\n        );\r\n    }\r\n\r\n    function performVote(uint256 proposalId, bool choosen)\r\n        public\r\n        stakeholderONly(\"unauthorized : only stakeholders can vote\")\r\n    {\r\n        ProposalStruct storage proposal = raisedProposals[proposalId];\r\n        handleVoting(proposal);\r\n\r\n        if (choosen) proposal.upvotes++;\r\n        else proposal.downvotes++;\r\n\r\n        stakeholderVotes[msg.sender].push(proposal.id);\r\n        votedOn[proposal.id].push(\r\n            VotedStruct(msg.sender, block.timestamp, choosen)\r\n        );\r\n\r\n        emit Action(\r\n            msg.sender,\r\n            STAKEHOLDER_ROLE,\r\n            \"Proposal vote\",\r\n            proposal.beneficiary,\r\n            proposal.amount\r\n        );\r\n    }\r\n\r\n    function handleVoting(ProposalStruct storage proposal) private {\r\n        if (proposal.passed || proposal.duration <= block.timestamp) {\r\n            proposal.passed = true;\r\n            revert(\"Proposal duration expired\");\r\n        }\r\n\r\n        uint256[] memory tempVotes = stakeholderVotes[msg.sender];\r\n        for (uint256 votes = 0; votes < tempVotes.length; votes++) {\r\n            if (proposal.id == tempVotes[votes]) {\r\n                revert(\"DOuble voting not allowed\");\r\n            }\r\n        }\r\n    }\r\n\r\n    function payBeneficiary(uint256 proposalId)\r\n        public\r\n        stakeholderONly(\"unauthorized : only stakeholders can vote\")\r\n        nonReentrant\r\n    {\r\n        ProposalStruct storage proposal = raisedProposals[proposalId];\r\n        require(daoBalance >= proposal.amount, \"Insufficient fund\");\r\n\r\n        if (proposal.paid) revert(\"Payment already made\");\r\n\r\n        if (proposal.upvotes < proposal.downvotes) revert(\"Insufficient votes\");\r\n\r\n        payTo(proposal.beneficiary, proposal.amount);\r\n        proposal.paid = true;\r\n        proposal.executor = msg.sender;\r\n        daoBalance -= proposal.amount;\r\n\r\n        emit Action(\r\n            msg.sender,\r\n            STAKEHOLDER_ROLE,\r\n            \"PAYMENT_TRANSFER\",\r\n            proposal.beneficiary,\r\n            proposal.amount\r\n        );\r\n    }\r\n\r\n    function contribute() external payable returns (uint256) {\r\n        require(msg.value > 0 ether, \"Insuff amount\");\r\n        if (!hasRole(STAKEHOLDER_ROLE, msg.sender)) {\r\n            uint256 totalContribution = contributors[msg.sender] + msg.value;\r\n\r\n            if (totalContribution >= MIN_STAKEHOLDER_CONTRIBUTION) {\r\n                stakeholders[msg.sender] = totalContribution;\r\n                contributors[msg.sender] += msg.value;\r\n                _setupRole(STAKEHOLDER_ROLE, msg.sender);\r\n                _setupRole(CONTRIBUTOR_ROLE, msg.sender);\r\n            } else {\r\n                contributors[msg.sender] += msg.value;\r\n                _setupRole(CONTRIBUTOR_ROLE, msg.sender);\r\n            }\r\n        } else {\r\n            contributors[msg.sender] += msg.value;\r\n            stakeholders[msg.sender] += msg.value;\r\n        }\r\n        daoBalance += msg.value;\r\n\r\n        emit Action(\r\n            msg.sender,\r\n            STAKEHOLDER_ROLE,\r\n            \"Contribution recieved\",\r\n            address(this),\r\n            msg.value\r\n        );\r\n    }\r\n\r\n    function getProposals()\r\n        public\r\n        view\r\n        returns (ProposalStruct[] memory props)\r\n    {\r\n        props = new ProposalStruct[](totalProposals);\r\n\r\n        for (uint256 i = 0; i < totalProposals; i++) {\r\n            props[i] = raisedProposals[i];\r\n        }\r\n    }\r\n\r\n    function getProposal(uint256 proposalId)\r\n        public\r\n        view\r\n        returns (ProposalStruct memory)\r\n    {\r\n        return raisedProposals[proposalId];\r\n    }\r\n\r\n    function getotesOf(uint256 proposalId) public view returns(VotedStruct[] memory){\r\n        return votedOn[proposalId];\r\n    }\r\n\r\n    function getStakeholderVotes() public view stakeholderONly(\"Unauthorized\") returns(uint256[] memory){\r\n        return stakeholderVotes[msg.sender];\r\n    }\r\n\r\n    function getStakeholderBalance() public view stakeholderONly(\"Unauthorized\") returns(uint256){\r\n        return stakeholders[msg.sender];\r\n    }\r\n\r\n    function isStakeholder() public view returns(bool){\r\n        return stakeholders[msg.sender]>0;\r\n    }  \r\n\r\n    function getContributorBalance() public view contributorOnly(\"Unauthorized\") returns(uint256){\r\n        return contributors[msg.sender];\r\n    }\r\n\r\n     function isContributor() public view returns(bool){\r\n        return contributors[msg.sender]>0;\r\n    }  \r\n\r\n    function getBalance() public view returns(uint256){\r\n        return contributors[msg.sender];\r\n    }\r\n\r\n      function payTo(address to, uint256 amount) internal returns (bool) {\r\n        (bool success, ) = payable(to).call{value: amount}(\"\");\r\n        require(success, \"Payment failed\");\r\n        return true;\r\n    }\r\n}\r\n",
  "sourcePath": "D:\\tutorial\\solidity\\DAO2\\src\\contracts\\DominionDAO.sol",
  "compiler": {
    "name": "solc",
    "version": "0.8.11+commit.d7f03943.Emscripten.clang"
  },
  "schemaVersion": "3.4.11",
  "updatedAt": "2022-12-30T12:18:26.567Z",
  "networkType": "ethereum",
  "devdoc": {
    "kind": "dev",
    "methods": {
      "getRoleAdmin(bytes32)": {
        "details": "Returns the admin role that controls `role`. See {grantRole} and {revokeRole}. To change a role's admin, use {_setRoleAdmin}."
      },
      "grantRole(bytes32,address)": {
        "details": "Grants `role` to `account`. If `account` had not been already granted `role`, emits a {RoleGranted} event. Requirements: - the caller must have ``role``'s admin role. May emit a {RoleGranted} event."
      },
      "hasRole(bytes32,address)": {
        "details": "Returns `true` if `account` has been granted `role`."
      },
      "renounceRole(bytes32,address)": {
        "details": "Revokes `role` from the calling account. Roles are often managed via {grantRole} and {revokeRole}: this function's purpose is to provide a mechanism for accounts to lose their privileges if they are compromised (such as when a trusted device is misplaced). If the calling account had been revoked `role`, emits a {RoleRevoked} event. Requirements: - the caller must be `account`. May emit a {RoleRevoked} event."
      },
      "revokeRole(bytes32,address)": {
        "details": "Revokes `role` from `account`. If `account` had been granted `role`, emits a {RoleRevoked} event. Requirements: - the caller must have ``role``'s admin role. May emit a {RoleRevoked} event."
      },
      "supportsInterface(bytes4)": {
        "details": "See {IERC165-supportsInterface}."
      }
    },
    "version": 1
  },
  "userdoc": {
    "kind": "user",
    "methods": {},
    "version": 1
  }
}